{
  "contractName": "PatientData",
  "abi": [
    {
      "inputs": [],
      "payable": false,
      "stateMutability": "nonpayable",
      "type": "constructor"
    },
    {
      "constant": true,
      "inputs": [],
      "name": "countMedicalReports",
      "outputs": [
        {
          "internalType": "uint256",
          "name": "",
          "type": "uint256"
        }
      ],
      "payable": false,
      "stateMutability": "view",
      "type": "function"
    },
    {
      "constant": true,
      "inputs": [
        {
          "internalType": "uint256",
          "name": "",
          "type": "uint256"
        }
      ],
      "name": "medicalReports",
      "outputs": [
        {
          "internalType": "address",
          "name": "senderId",
          "type": "address"
        },
        {
          "internalType": "string",
          "name": "medReportId",
          "type": "string"
        },
        {
          "internalType": "string",
          "name": "bloodGroup",
          "type": "string"
        },
        {
          "internalType": "string",
          "name": "diseaseName",
          "type": "string"
        },
        {
          "internalType": "string",
          "name": "diseaseDescription",
          "type": "string"
        },
        {
          "internalType": "string",
          "name": "diseaseStartedOn",
          "type": "string"
        },
        {
          "internalType": "string",
          "name": "bp",
          "type": "string"
        },
        {
          "internalType": "string",
          "name": "temp",
          "type": "string"
        }
      ],
      "payable": false,
      "stateMutability": "view",
      "type": "function"
    },
    {
      "constant": true,
      "inputs": [
        {
          "internalType": "address",
          "name": "",
          "type": "address"
        }
      ],
      "name": "senders",
      "outputs": [
        {
          "internalType": "string",
          "name": "name",
          "type": "string"
        },
        {
          "internalType": "string",
          "name": "institutionName",
          "type": "string"
        },
        {
          "internalType": "string",
          "name": "institutionCode",
          "type": "string"
        },
        {
          "internalType": "uint256",
          "name": "patientCount",
          "type": "uint256"
        }
      ],
      "payable": false,
      "stateMutability": "view",
      "type": "function"
    },
    {
      "constant": false,
      "inputs": [
        {
          "internalType": "string",
          "name": "patientId",
          "type": "string"
        },
        {
          "internalType": "string",
          "name": "patientName",
          "type": "string"
        },
        {
          "internalType": "string",
          "name": "birthDate",
          "type": "string"
        },
        {
          "internalType": "string",
          "name": "phoneNumber",
          "type": "string"
        },
        {
          "internalType": "string",
          "name": "_address",
          "type": "string"
        },
        {
          "internalType": "string",
          "name": "medReportId",
          "type": "string"
        },
        {
          "internalType": "string",
          "name": "bloodGroup",
          "type": "string"
        },
        {
          "internalType": "string",
          "name": "diseaseName",
          "type": "string"
        },
        {
          "internalType": "string",
          "name": "diseaseDescription",
          "type": "string"
        },
        {
          "internalType": "string",
          "name": "diseaseStartedOn",
          "type": "string"
        },
        {
          "internalType": "string",
          "name": "bp",
          "type": "string"
        },
        {
          "internalType": "string",
          "name": "temp",
          "type": "string"
        }
      ],
      "name": "addMedicalReport",
      "outputs": [],
      "payable": false,
      "stateMutability": "nonpayable",
      "type": "function"
    },
    {
      "constant": true,
      "inputs": [
        {
          "internalType": "uint256",
          "name": "index",
          "type": "uint256"
        }
      ],
      "name": "getPatientsList",
      "outputs": [
        {
          "internalType": "string",
          "name": "",
          "type": "string"
        },
        {
          "internalType": "string",
          "name": "",
          "type": "string"
        },
        {
          "internalType": "string",
          "name": "",
          "type": "string"
        },
        {
          "internalType": "string",
          "name": "",
          "type": "string"
        },
        {
          "internalType": "uint256",
          "name": "",
          "type": "uint256"
        }
      ],
      "payable": false,
      "stateMutability": "view",
      "type": "function"
    }
  ],
  "bytecode": "0x608060405260008055600060045534801561001957600080fd5b506120a8806100296000396000f3fe608060405234801561001057600080fd5b50600436106100575760003560e01c8063360d0f291461005c578063982fb9d8146100765780639a387ed4146101e7578063a2df7d0b14610845578063beedbba914610b5a575b600080fd5b610064610d28565b60408051918252519081900360200190f35b61009c6004803603602081101561008c57600080fd5b50356001600160a01b0316610d2e565b60405180806020018060200180602001858152602001848103845288818151815260200191508051906020019080838360005b838110156100e75781810151838201526020016100cf565b50505050905090810190601f1680156101145780820380516001836020036101000a031916815260200191505b50848103835287518152875160209182019189019080838360005b8381101561014757818101518382015260200161012f565b50505050905090810190601f1680156101745780820380516001836020036101000a031916815260200191505b50848103825286518152865160209182019188019080838360005b838110156101a757818101518382015260200161018f565b50505050905090810190601f1680156101d45780820380516001836020036101000a031916815260200191505b5097505050505050505060405180910390f35b61084360048036036101808110156101fe57600080fd5b810190602081018135600160201b81111561021857600080fd5b82018360208201111561022a57600080fd5b803590602001918460018302840111600160201b8311171561024b57600080fd5b91908080601f0160208091040260200160405190810160405280939291908181526020018383808284376000920191909152509295949360208101935035915050600160201b81111561029d57600080fd5b8201836020820111156102af57600080fd5b803590602001918460018302840111600160201b831117156102d057600080fd5b91908080601f0160208091040260200160405190810160405280939291908181526020018383808284376000920191909152509295949360208101935035915050600160201b81111561032257600080fd5b82018360208201111561033457600080fd5b803590602001918460018302840111600160201b8311171561035557600080fd5b91908080601f0160208091040260200160405190810160405280939291908181526020018383808284376000920191909152509295949360208101935035915050600160201b8111156103a757600080fd5b8201836020820111156103b957600080fd5b803590602001918460018302840111600160201b831117156103da57600080fd5b91908080601f0160208091040260200160405190810160405280939291908181526020018383808284376000920191909152509295949360208101935035915050600160201b81111561042c57600080fd5b82018360208201111561043e57600080fd5b803590602001918460018302840111600160201b8311171561045f57600080fd5b91908080601f0160208091040260200160405190810160405280939291908181526020018383808284376000920191909152509295949360208101935035915050600160201b8111156104b157600080fd5b8201836020820111156104c357600080fd5b803590602001918460018302840111600160201b831117156104e457600080fd5b91908080601f0160208091040260200160405190810160405280939291908181526020018383808284376000920191909152509295949360208101935035915050600160201b81111561053657600080fd5b82018360208201111561054857600080fd5b803590602001918460018302840111600160201b8311171561056957600080fd5b91908080601f0160208091040260200160405190810160405280939291908181526020018383808284376000920191909152509295949360208101935035915050600160201b8111156105bb57600080fd5b8201836020820111156105cd57600080fd5b803590602001918460018302840111600160201b831117156105ee57600080fd5b91908080601f0160208091040260200160405190810160405280939291908181526020018383808284376000920191909152509295949360208101935035915050600160201b81111561064057600080fd5b82018360208201111561065257600080fd5b803590602001918460018302840111600160201b8311171561067357600080fd5b91908080601f0160208091040260200160405190810160405280939291908181526020018383808284376000920191909152509295949360208101935035915050600160201b8111156106c557600080fd5b8201836020820111156106d757600080fd5b803590602001918460018302840111600160201b831117156106f857600080fd5b91908080601f0160208091040260200160405190810160405280939291908181526020018383808284376000920191909152509295949360208101935035915050600160201b81111561074a57600080fd5b82018360208201111561075c57600080fd5b803590602001918460018302840111600160201b8311171561077d57600080fd5b91908080601f0160208091040260200160405190810160405280939291908181526020018383808284376000920191909152509295949360208101935035915050600160201b8111156107cf57600080fd5b8201836020820111156107e157600080fd5b803590602001918460018302840111600160201b8311171561080257600080fd5b91908080601f016020809104026020016040519081016040528093929190818152602001838380828437600092019190915250929550610f00945050505050565b005b6108626004803603602081101561085b57600080fd5b503561185e565b60405180896001600160a01b03166001600160a01b031681526020018060200180602001806020018060200180602001806020018060200188810388528f818151815260200191508051906020019080838360005b838110156108cf5781810151838201526020016108b7565b50505050905090810190601f1680156108fc5780820380516001836020036101000a031916815260200191505b5088810387528e818151815260200191508051906020019080838360005b8381101561093257818101518382015260200161091a565b50505050905090810190601f16801561095f5780820380516001836020036101000a031916815260200191505b5088810386528d5181528d516020918201918f019080838360005b8381101561099257818101518382015260200161097a565b50505050905090810190601f1680156109bf5780820380516001836020036101000a031916815260200191505b5088810385528c5181528c516020918201918e019080838360005b838110156109f25781810151838201526020016109da565b50505050905090810190601f168015610a1f5780820380516001836020036101000a031916815260200191505b5088810384528b5181528b516020918201918d019080838360005b83811015610a52578181015183820152602001610a3a565b50505050905090810190601f168015610a7f5780820380516001836020036101000a031916815260200191505b5088810383528a5181528a516020918201918c019080838360005b83811015610ab2578181015183820152602001610a9a565b50505050905090810190601f168015610adf5780820380516001836020036101000a031916815260200191505b5088810382528951815289516020918201918b019080838360005b83811015610b12578181015183820152602001610afa565b50505050905090810190601f168015610b3f5780820380516001836020036101000a031916815260200191505b509f5050505050505050505050505050505060405180910390f35b610b7760048036036020811015610b7057600080fd5b5035611c71565b604051808060200180602001806020018060200186815260200185810385528a818151815260200191508051906020019080838360005b83811015610bc6578181015183820152602001610bae565b50505050905090810190601f168015610bf35780820380516001836020036101000a031916815260200191505b5085810384528951815289516020918201918b019080838360005b83811015610c26578181015183820152602001610c0e565b50505050905090810190601f168015610c535780820380516001836020036101000a031916815260200191505b5085810383528851815288516020918201918a019080838360005b83811015610c86578181015183820152602001610c6e565b50505050905090810190601f168015610cb35780820380516001836020036101000a031916815260200191505b50858103825287518152875160209182019189019080838360005b83811015610ce6578181015183820152602001610cce565b50505050905090810190601f168015610d135780820380516001836020036101000a031916815260200191505b50995050505050505050505060405180910390f35b60005481565b60016020818152600092835260409283902080548451600294821615610100026000190190911693909304601f8101839004830284018301909452838352928391830182828015610dc05780601f10610d9557610100808354040283529160200191610dc0565b820191906000526020600020905b815481529060010190602001808311610da357829003601f168201915b505050505090806001018054600181600116156101000203166002900480601f016020809104026020016040519081016040528092919081815260200182805460018160011615610100020316600290048015610e5e5780601f10610e3357610100808354040283529160200191610e5e565b820191906000526020600020905b815481529060010190602001808311610e4157829003601f168201915b50505060028085018054604080516020601f6000196101006001871615020190941695909504928301859004850281018501909152818152959695945090925090830182828015610ef05780601f10610ec557610100808354040283529160200191610ef0565b820191906000526020600020905b815481529060010190602001808311610ed357829003601f168201915b5050505050908060030154905084565b606060016000336001600160a01b03166001600160a01b031681526020019081526020016000206005018d6040518082805190602001908083835b60208310610f5a5780518252601f199092019160209182019101610f3b565b518151600019602094850361010090810a820192831692199390931691909117909252949092019687526040805197889003820188208054601f600260018316159098029095011695909504928301829004820288018201905281875292945092505083018282801561100e5780601f10610fe35761010080835404028352916020019161100e565b820191906000526020600020905b815481529060010190602001808311610ff157829003601f168201915b505050505090508051600014156112fd578c60016000336001600160a01b03166001600160a01b03168152602001908152602001600020600401600060016000336001600160a01b03166001600160a01b03168152602001908152602001600020600301600081548092919060010191905055815260200190815260200160002090805190602001906110a2929190611fa9565b506040518060a001604052808d81526020018c81526020018b81526020018a815260200160005481525060016000336001600160a01b03166001600160a01b031681526020019081526020016000206005018e6040518082805190602001908083835b602083106111245780518252601f199092019160209182019101611105565b51815160209384036101000a600019018019909216911617905292019485525060405193849003810190932084518051919461116594508593500190611fa9565b50602082810151805161117e9260018501920190611fa9565b506040820151805161119a916002840191602090910190611fa9565b50606082015180516111b6916003840191602090910190611fa9565b5060809182015160049190910155604080516101008101825233815260208082018c81528284018c9052606083018b905293820189905260a0820188905260c0820187905260e08201869052600080546001808201835590825260028352939020825181546001600160a01b0319166001600160a01b039091161781559351805192949361124c93908501929190910190611fa9565b5060408201518051611268916002840191602090910190611fa9565b5060608201518051611284916003840191602090910190611fa9565b50608082015180516112a0916004840191602090910190611fa9565b5060a082015180516112bc916005840191602090910190611fa9565b5060c082015180516112d8916006840191602090910190611fa9565b5060e082015180516112f4916007840191602090910190611fa9565b5090505061184f565b611305612027565b60016000336001600160a01b03166001600160a01b031681526020019081526020016000206005018e6040518082805190602001908083835b6020831061135d5780518252601f19909201916020918201910161133e565b518151600019602094850361010090810a82019283169219939093169190911790925294909201968752604080519788900382018820805460c0601f600260018416159099029096019091169690960493840183900490920288018501905260a087018281529095508694509285925084018282801561141e5780601f106113f35761010080835404028352916020019161141e565b820191906000526020600020905b81548152906001019060200180831161140157829003601f168201915b50505050508152602001600182018054600181600116156101000203166002900480601f0160208091040260200160405190810160405280929190818152602001828054600181600116156101000203166002900480156114c05780601f10611495576101008083540402835291602001916114c0565b820191906000526020600020905b8154815290600101906020018083116114a357829003601f168201915b5050509183525050600282810180546040805160206001841615610100026000190190931694909404601f810183900483028501830190915280845293810193908301828280156115525780601f1061152757610100808354040283529160200191611552565b820191906000526020600020905b81548152906001019060200180831161153557829003601f168201915b505050918352505060038201805460408051602060026001851615610100026000190190941693909304601f81018490048402820184019092528181529382019392918301828280156115e65780601f106115bb576101008083540402835291602001916115e6565b820191906000526020600020905b8154815290600101906020018083116115c957829003601f168201915b5050505050815260200160048201548152505090506040518060a001604052808e81526020018d81526020018c81526020018b8152602001826080015181525060016000336001600160a01b03166001600160a01b031681526020019081526020016000206005018f6040518082805190602001908083835b6020831061167e5780518252601f19909201916020918201910161165f565b51815160209384036101000a60001901801990921691161790529201948552506040519384900381019093208451805191946116bf94508593500190611fa9565b5060208281015180516116d89260018501920190611fa9565b50604082015180516116f4916002840191602090910190611fa9565b5060608201518051611710916003840191602090910190611fa9565b5060809182015160049190910155604080516101008101825233815260208082018d81528284018d9052606083018c90528285018b905260a083018a905260c0830189905260e083018890529385015160009081526002825292909220815181546001600160a01b0319166001600160a01b03909116178155925180519193926117a292600185019290910190611fa9565b50604082015180516117be916002840191602090910190611fa9565b50606082015180516117da916003840191602090910190611fa9565b50608082015180516117f6916004840191602090910190611fa9565b5060a08201518051611812916005840191602090910190611fa9565b5060c0820151805161182e916006840191602090910190611fa9565b5060e0820151805161184a916007840191602090910190611fa9565b505050505b50505050505050505050505050565b6002602081815260009283526040928390208054600180830180548751601f600019948316156101000294909401909116969096049182018590048502860185019096528085526001600160a01b03909116949193928301828280156119055780601f106118da57610100808354040283529160200191611905565b820191906000526020600020905b8154815290600101906020018083116118e857829003601f168201915b50505060028085018054604080516020601f60001961010060018716150201909416959095049283018590048502810185019091528181529596959450909250908301828280156119975780601f1061196c57610100808354040283529160200191611997565b820191906000526020600020905b81548152906001019060200180831161197a57829003601f168201915b5050505060038301805460408051602060026001851615610100026000190190941693909304601f8101849004840282018401909252818152949594935090830182828015611a275780601f106119fc57610100808354040283529160200191611a27565b820191906000526020600020905b815481529060010190602001808311611a0a57829003601f168201915b5050505060048301805460408051602060026001851615610100026000190190941693909304601f8101849004840282018401909252818152949594935090830182828015611ab75780601f10611a8c57610100808354040283529160200191611ab7565b820191906000526020600020905b815481529060010190602001808311611a9a57829003601f168201915b5050505060058301805460408051602060026001851615610100026000190190941693909304601f8101849004840282018401909252818152949594935090830182828015611b475780601f10611b1c57610100808354040283529160200191611b47565b820191906000526020600020905b815481529060010190602001808311611b2a57829003601f168201915b5050505060068301805460408051602060026001851615610100026000190190941693909304601f8101849004840282018401909252818152949594935090830182828015611bd75780601f10611bac57610100808354040283529160200191611bd7565b820191906000526020600020905b815481529060010190602001808311611bba57829003601f168201915b5050505060078301805460408051602060026001851615610100026000190190941693909304601f8101849004840282018401909252818152949594935090830182828015611c675780601f10611c3c57610100808354040283529160200191611c67565b820191906000526020600020905b815481529060010190602001808311611c4a57829003601f168201915b5050505050905088565b6060806060806000611c81612027565b3360009081526001602081815260408084208b855260048101909252928390209251835460059092019392909182918491600291811615610100026000190116048015611d055780601f10611ce3576101008083540402835291820191611d05565b820191906000526020600020905b815481529060010190602001808311611cf1575b505092835250506040805160209281900383018120805460026001821615610100026000190190911604601f8101859004909402820160c090810190935260a08201848152919390928492918491840182828015611da45780601f10611d7957610100808354040283529160200191611da4565b820191906000526020600020905b815481529060010190602001808311611d8757829003601f168201915b50505050508152602001600182018054600181600116156101000203166002900480601f016020809104026020016040519081016040528092919081815260200182805460018160011615610100020316600290048015611e465780601f10611e1b57610100808354040283529160200191611e46565b820191906000526020600020905b815481529060010190602001808311611e2957829003601f168201915b5050509183525050600282810180546040805160206001841615610100026000190190931694909404601f81018390048302850183019091528084529381019390830182828015611ed85780601f10611ead57610100808354040283529160200191611ed8565b820191906000526020600020905b815481529060010190602001808311611ebb57829003601f168201915b505050918352505060038201805460408051602060026001851615610100026000190190941693909304601f8101849004840282018401909252818152938201939291830182828015611f6c5780601f10611f4157610100808354040283529160200191611f6c565b820191906000526020600020905b815481529060010190602001808311611f4f57829003601f168201915b50505091835250506004919091015460209182015281519082015160408301516060840151608090940151929b919a509850919650945092505050565b828054600181600116156101000203166002900490600052602060002090601f016020900481019282601f10611fea57805160ff1916838001178555612017565b82800160010185558215612017579182015b82811115612017578251825591602001919060010190611ffc565b50612023929150612056565b5090565b6040518060a0016040528060608152602001606081526020016060815260200160608152602001600081525090565b61207091905b80821115612023576000815560010161205c565b9056fea265627a7a72315820d6c81cafa99d2290847dd045a67a2d9d8b78e1fe0990fa3c5b9d299965d81f4a64736f6c63430005100032",
  "source": "pragma solidity 0.5.16;\r\n\r\ncontract PatientData {\r\n    uint256 public countMedicalReports = 0;\r\n\r\n    mapping(address => Sender) public senders;\r\n    mapping(uint => PatientMedicalReportStruct) public medicalReports;\r\n\r\n    mapping(uint => string) hashes;\r\n    uint hashCount = 0;\r\n\r\n    struct PatientBioStruct {\r\n        string name;\r\n        string birthDate;\r\n        string phoneNumber;\r\n        string _address;\r\n        uint medicalReportNo;\r\n    }\r\n\r\n    struct PatientMedicalReportStruct {\r\n        address senderId;\r\n        string medReportId;\r\n        string bloodGroup;\r\n        string diseaseName;\r\n        string diseaseDescription;\r\n        string diseaseStartedOn;\r\n        string bp;\r\n        string temp;\r\n    }\r\n\r\n    struct Sender {\r\n        string name;\r\n        string institutionName;\r\n        string institutionCode;\r\n        uint patientCount;\r\n        mapping(uint => string) patientsArray;\r\n        mapping(string => PatientBioStruct) patients;\r\n    }\r\n\r\n    constructor() public {}\r\n\r\n    function addMedicalReport(\r\n        string memory patientId,\r\n        string memory patientName,\r\n        string memory birthDate,\r\n        string memory phoneNumber,\r\n        string memory _address,\r\n        string memory medReportId,\r\n        string memory bloodGroup,\r\n        string memory diseaseName,\r\n        string memory diseaseDescription,\r\n        string memory diseaseStartedOn,\r\n        string memory bp,\r\n        string memory temp\r\n    ) public {\r\n        // uint _hash = uint(keccak256(abi.encodePacked(msg.sender, patientId, medReportId)));\r\n        bytes memory name = bytes(senders[msg.sender].patients[patientId].name);\r\n        if (name.length == 0) {\r\n            senders[msg.sender].patientsArray[\r\n                senders[msg.sender].patientCount++\r\n            ] = patientId;\r\n            senders[msg.sender].patients[patientId] = PatientBioStruct(\r\n                patientName,\r\n                birthDate,\r\n                phoneNumber,\r\n                _address,\r\n                countMedicalReports\r\n            );\r\n\r\n            medicalReports[countMedicalReports++] = PatientMedicalReportStruct(\r\n                msg.sender,\r\n                medReportId,\r\n                bloodGroup,\r\n                diseaseName,\r\n                diseaseDescription,\r\n                diseaseStartedOn,\r\n                bp,\r\n                temp\r\n            );\r\n        } else {\r\n            PatientBioStruct memory patientBio = senders[msg.sender].patients[\r\n                patientId\r\n            ];\r\n            senders[msg.sender].patients[patientId] = PatientBioStruct(\r\n                patientName,\r\n                birthDate,\r\n                phoneNumber,\r\n                _address,\r\n                patientBio.medicalReportNo\r\n            );\r\n            medicalReports[\r\n                patientBio.medicalReportNo\r\n            ] = PatientMedicalReportStruct(\r\n                msg.sender,\r\n                medReportId,\r\n                bloodGroup,\r\n                diseaseName,\r\n                diseaseDescription,\r\n                diseaseStartedOn,\r\n                bp,\r\n                temp\r\n            );\r\n        }\r\n    }\r\n\r\n    function getPatientsList(\r\n        uint index\r\n    )\r\n        public\r\n        view\r\n        returns (\r\n            string memory,\r\n            string memory,\r\n            string memory,\r\n            string memory,\r\n            uint\r\n        )\r\n    {\r\n        PatientBioStruct memory patientBio = senders[msg.sender].patients[\r\n            senders[msg.sender].patientsArray[index]\r\n        ];\r\n        return (\r\n            patientBio.name,\r\n            patientBio.birthDate,\r\n            patientBio.phoneNumber,\r\n            patientBio._address,\r\n            patientBio.medicalReportNo\r\n        );\r\n    }\r\n}\r\n",
  "sourcePath": "D:\\Projects\\My_Works\\Patient-details-using-blockchain\\contracts\\PatientData.sol",
  "compiler": {
    "name": "solc",
    "version": "0.5.16+commit.9c3226ce.Emscripten.clang"
  },
  "schemaVersion": "3.4.16",
  "updatedAt": "2024-09-19T06:24:03.616Z",
  "networkType": "ethereum",
  "devdoc": {
    "methods": {}
  },
  "userdoc": {
    "methods": {}
  }
}